:1000000000400020050800005108000051080000D1
:1000100051080000510800005108000000000000D5
:100020000000000000000000000000005108000077
:1000300051080000000000005108000051080000B5
:10004000510800005108000051080000510800004C
:10005000510800005108000051080000510800003C
:10006000510800005108000051080000510800002C
:10007000510800005108000051080000510800001C
:10008000510800005108000051080000510800000C
:1000900051080000510800005108000051080000FC
:1000A00051080000510800005108000051080000EC
:1000B00051080000510800005108000051080000DC
:1000C00051080000510800005108000051080000CC
:1000D00051080000510800005108000051080000BC
:1000E00051080000510800005108000051080000AC
:1000F000510800005108000051080000510800009C
:10010000510800005108000051080000510800008B
:10011000510800005108000051080000510800007B
:10012000510800005108000051080000510800006B
:10013000510800005108000051080000510800005B
:10014000510800005108000051080000510800004B
:10015000510800005108000080B400AFA24B4FF4DA
:100160007C525A61A04B4FF47C525A639F4A138AC7
:100170006FF30A2313829E4A93686FF31F439360C1
:100180009B4B0022DA609A4A13686FF3C303136033
:10019000974A1368022161F301031360944A1368BC
:1001A0006FF382031360924A13686FF3C9131360ED
:1001B0008F4A13686FF38C2313608D4A13680121F3
:1001C00061F3051313608A4A1368022161F38F33C8
:1001D0001360874A136843F480331360844A938A18
:1001E0006FF304139382824A938A6FF3010393821D
:1001F0007F4A938A6FF3861393827D4A938A6FF3C3
:10020000830393827A4A138C012161F301031384DF
:10021000774A138C022161F305131384744A138CFB
:10022000012161F387131384714A92F828306FF328
:10023000871382F828306F4AB2F8E03043F0100399
:10024000A2F8E0306B4AB2F8F03043F01003A2F8A5
:10025000F030674A93696FF31F439361644AD3692F
:100260006FF31F43D361624B40F635421A61604B16
:1002700032225A635E4B5E4A5B6B93635C4A92F830
:1002800030306FF3051382F83030594A92F830302D
:10029000022161F3830382F83030554A92F83030FE
:1002A00043F0030382F83030514A92F840306FF344
:1002B000010382F840304E4A92F840306FF38303D6
:1002C00082F840304A4B4C4A1B6913614A4A936892
:1002D000012161F31F439360474B0022DA60464AD5
:1002E00013686FF3C3031360434A1368022161F379
:1002F00001031360404A136843F0040313603E4A4D
:10030000136843F4005313603B4A13686FF3C91337
:100310001360394A13686FF38C231360364A1368ED
:100320006FF305131360344A1368022161F38F33AE
:100330001360314A136843F4803313602C4B2E4A08
:100340005B6953612A4B2C4A1B6A1362284B2A4A69
:100350005B6B5363264B284A9B6B9363244B264A63
:100360001B6B1363224B244A1B6C1364204B224AE1
:100370005B6D5365204A92F828306FF3871382F83B
:1003800028301B4B1C4A9B69C3F30F4399B29369F6
:1003900061F31F439361164B174ADB69C3F30F43A5
:1003A00099B2D36961F31F43D361114B134A1B699F
:1003B0001361124A9368012161F31F4393600F4B4D
:1003C0000022DA600C4B0D4A1B681360084B0B4A85
:1003D0005B695361064B094A1B6A1362044B074A67
:1003E0005B6B53630CE000BF000001400000044061
:1003F00000C004400010044000D0044000E004406D
:100400001A4B1B4A9B6B9363184B194A1B6B136364
:10041000164B174A1B6C1364144B154A5B6D5365DE
:10042000124B134A9B69C3F30F4399B2936961F36B
:100430001F4393610D4B0E4ADB69C3F30F4399B21F
:10044000D36961F31F43D361094A92F828306FF3EF
:10045000871382F82830074A138A43F4E063138233
:1004600000BFBD465DF8047B704700BF00C004407C
:1004700000E004400000044080B400AF144B1A6850
:10048000144B1B689A4219DD114B00221A60124B63
:100490001B6883F00103104A13600F4B1B68012B8C
:1004A00006D10E4B1B680D4A23F48043136005E010
:1004B0000A4B1B68094A43F480431360044B1B68D2
:1004C0000133034A136000BFBD465DF8047B7047EB
:1004D0001C0100200001002010010020000001404C
:1004E00080B500AF00F084F95B4B01229A615B4B51
:1004F00040F201121A635A4B4FF440425A61584B72
:100500004FF48042DA62564B4FF480429A63544B68
:100510001B6A534A43F000431362514BDB6C504A51
:1005200043F40043D3644E4B5B6D4D4A43F40043A8
:1005300053654B4BFF22DA65FFF70EFE494B1B78E4
:100540005533DAB2484B1A70464B1A78474B1A703B
:10055000444B1B78553BDAB2454B1A70424B1B7823
:100560001A46444B9B5C1A4640F6F53303FB02F3F4
:100570001B0A9BB2404A013399B2936961F31F434E
:1005800093613A4B1B781A463A4B9B5C1A4640F6ED
:10059000F53303FB02F31B0A9BB2384A013399B2CD
:1005A000936961F31F439361314B1B781A46314BBA
:1005B0009B5C1A4640F6F53303FB02F31B0A9BB221
:1005C0002F4A013399B2936961F31F4393612D4B15
:1005D0001B689B0BDAB2234B1A702A4B1B68013342
:1005E000284A13601E4B1B6803F40043002B26D0DF
:1005F000254B1B68002B22D1234B01221A60234B71
:100600001B680133214A1360204B1B68012B02DD5C
:100610001E4B00221A601D4B1B68012B07D11C4B7F
:100620001C4A1A600D4B40F201221A6310E0184B6D
:10063000194A1A60094B40F201121A6308E0084B8C
:100640001B6803F40043002B02D10F4B00221A60F9
:10065000FFF712FF72E700BF0000044000100440E3
:1006600000000140040100200C0100200D010020C9
:100670000E0100200000002000C0044000D0044013
:1006800000E00440080100201801002014010020AF
:1006900000010020400D030040420F0080B483B0F1
:1006A00000AF00237B6002E07B6801337B60374B47
:1006B0005B69C3F34063DBB2002B03D17B68B3F506
:1006C000801FF1D37B68B3F5801F00D1FEE72F4B6D
:1006D00040F219129A602D4B9B682C4A43F08063BC
:1006E00043F48033936000BF284B9B68C3F30073CF
:1006F000DBB2002BF8D0264B4FF44032DA620223F3
:100700003B60224A3B68136100237B6002E07B6808
:1007100001337B601D4B5B69C3F30103DAB21B4BF2
:100720001B69C3F30103DBB29A4203D07B68B3F5C4
:10073000801FECD37B68B3F5801F00D1FEE7144A1D
:10074000D36A43F48073D36200BF114B5B6BC3F376
:100750000003DBB2002BF8D10D4AD36A43F40073D7
:10076000D36200BF0A4B9B6BC3F30003DBB2002BC9
:10077000F8D1074BDB6A064A43F00703D36200BF98
:100780000C37BD465DF8047B704700BF0010044085
:100790000000034080B400AF064B4FF47002C3F872
:1007A0008820BFF34F8FBFF36F8F00BFBD465DF84A
:1007B000047B704700ED00E080B400AF0B4B0722D4
:1007C000C3F80021094B40F6FF72C3F8E020074B45
:1007D0000722C3F80421054B40F6FF72C3F8F0204E
:1007E00000BFBD465DF8047B704700BF00100440A9
:1007F00080B500AFFFF752FFFFF7CCFFFFF7DCFF3C
:1008000000BF80BD0E4C0F4DAC4209DA2168626812
:10081000A368043BA2BFC858D050FAE70C34F3E7F2
:10082000094B0A4CA34208DA19685A680020043AB6
:10083000A4BF8850FBE70833F4E7FFF751FE000040
:10084000540800006008000060080000680800000C
:04085000FEE700BF00
:0C08540068080000000000200401000003
:08086000040100201C0000004F
:10086800808386898C8F9295989C9FA2A5A8ABAE11
:10087800B0B3B6B9BCBFC1C4C7C9CCCED1D3D5D823
:10088800DADCDEE0E2E4E6E8EAEBEDEFF0F2F3F4DE
:10089800F6F7F8F9FAFBFBFCFDFDFEFEFEFFFFFF95
:1008A800FFFFFFFFFEFEFDFDFCFCFBFAF9F8F7F683
:1008B800F5F4F2F1EFEEECEBE9E7E5E3E1DFDDDBA0
:1008C800D9D7D4D2CFCDCAC8C5C3C0BDBAB8B5B2BE
:1008D800AFACA9A6A3A09D9A9794918E8A8784818C
:1008E8007E7B7875716E6B6865625F5C5956535094
:1008F8004D4A4745423F3C3A373532302D2B282662
:100908002422201E1C1A1816141311100E0D0B0A7F
:10091800090807060504030302020101000000009C
:10092800000000010101020203040405060708098A
:100938000B0C0D0F1012141517191B1D1F21232541
:10094800272A2C2E313336383B3E404346494C4FFC
:100958005154575A5D6063676A6D707376797C800D
:04096800400D03003B
:0400000300000805EC
:00000001FF
